:020000040C00EE
:100000000088FE1F010200089902000899020008FA
:1000100099020008990200089902000800000000F7
:10002000000000000000000000000000990200082D
:10003000990200080000000099020008F917000862
:100040009902000899020008990200089902000824
:100050009902000899020008990200089902000814
:1000600099020008000000000000000000000000ED
:100070009902000800000000990200089902000897
:1000800099020008990200089902000899020008E4
:1000900099020008990200089902000899020008D4
:1000A00099020008990200089902000899020008C4
:1000B00099020008990200089902000899020008B4
:1000C00099020008990200089902000899020008A4
:1000D0009902000899020008990200089902000894
:1000E0009902000899020008990200089902000884
:1000F0009902000899020008990200089902000874
:100100009902000899020008990200089902000863
:100110009902000899020008990200089902000853
:100120009902000899020008990200089902000843
:100130009902000899020008990200089902000833
:100140009902000899020008990200089902000823
:100150009902000899020008990200089902000813
:10016000000000000000000000000000000000008F
:1001700099020008990200089902000899020008F3
:1001800099020008990200089902000899020008E3
:100190009902000801210008990200080D210008B9
:1001A000011700080D170008DD200008F5200008E1
:1001B000D1200008E92000089902000899020008EF
:1001C00099020008990200089902000899020008A3
:1001D0009902000899020008990200080000000036
:1001E0009902000899020008990200089902000883
:1001F00055230008000000009902000800000000DC
:10020000DFF874D01D4880471D4C1E4DAC4209DA02
:1002100021686268A368043BA2BFC858D050FAE7BF
:100220000C34F3E7184B194CA34208DA19685A68E2
:100230000020043AA4BF8850FBE70833F4E71448D1
:1002400080471448804700006483000C0088FE1F2C
:10025000F00200006483000C0088FE1F0000000014
:10026000F08AFE1FB47100000000002000000000B2
:1002700000000020A03000000088FE1F25030008B9
:1002800048020008600200086002000878020008C6
:10029000E57700086D770008FEE700001D4BDB687E
:1002A000D90310B525D51C4BDA6812F0010F1C4696
:1002B00002D107F0A7F800E018482268164B520751
:1002C00010D59A6899689B68C2F30362C3F3064429
:1002D000531C04FB0333B0FBF3F0C1F3062303FB11
:1002E000000007E09B6803F07F030133B0FBF3F0ED
:1002F00000E00A48074AD368DBB20133B0FBF3F0F1
:10030000136903F001030133B0FBF3F0044B1860F1
:1003100010BD00BF004600501047005000366E016F
:10032000C0FF032038B5094A094D4FF00054234659
:1003300003CBAB42106051601C4602F10802F6D1BB
:1003400007F020F807F062F838BD00BFC4FF0320B3
:1003500010000020144843681B6810B51968134C3E
:1003600001F0EDFA12480621802200F04DFD1148FF
:100370000621802200F048FD00BF013CFCD10C4A60
:10038000094840235360C2F8043300F019F82146AD
:100390000622094807F06CFA214608480622BDE803
:1003A000104007F065BA00BFE488FE1F20A10700D7
:1003B0000082024800850248F88CFE1FFE8CFE1F5A
:1003C00003684FF4804210B50446C3F81821206832
:1003D000D0F814311B0702D400F071FDF7E710BD0F
:1003E00010B51446B2B1084644F6206311460A4AD5
:1003F00006F06BFE094B62681B6811681960516852
:10040000596011891981927A9A722046BDE810408C
:1004100004F0F4B810BD00BF088DFE1F048DFE1F50
:1004200010B50A4B0A4A1A6006F0ACFE094C0A499C
:1004300020604CF6204206F087FD2068074940F214
:100440003952BDE8104006F081BE00BF088DFE1F86
:10045000C0A800090C8DFE1FD07D0008E103000834
:1004600070B50B4C0B4E256836782E7025686B7076
:1004700023689A7040F2B55303FB021103238342B1
:1004800005DA226811F8015BD5540133F7E770BD36
:10049000048DFE1FF18AFE1F2DE9F843814606F008
:1004A00099FC304B00241C701E4696F800802E4D9F
:1004B0002E4F44454FF4B7604FF0010125DA07F0A5
:1004C00081F90123E2B22860494640F2B550FFF7B6
:1004D000C7FF00204FF4B761024604F0AFF8296867
:1004E00080464FF4B762406802F0B4F84146204AB3
:1004F00038684CF6204306F0E8FD404604F07EF8EC
:10050000286807F09DF90134CFE707F05BF9494609
:100510002860424601230B20FFF7A2FF00200B2199
:10052000024604F08BF82A68436811681960516824
:100530005960118919810446927A9A7221460C4AAF
:1005400038684CF6204306F0C0FD0646204604F00D
:1005500055F8286807F074F906F03CFC3046BDE811
:10056000F88300BFF08AFE1F048DFE1F0C8DFE1F56
:10057000088DFE1F82B000230193019B834203D2AA
:1005800000BF019B0133F7E702B0704701F0FC03A5
:100590000344F0B501F003041E69E400F825A5400A
:1005A00026EA05051D61466F4F000325BD4026EA7A
:1005B00005054567164DA84203D005F58075A8428C
:1005C00007D1056E012606FA01F125EA010101664F
:1005D00018E092F90050002D14DA55688D404560FE
:1005E000CD0800EB850001F00701066C89000725A6
:1005F0008D4026EA05050564167A056C06FA01F1B8
:100600002943016412781969A2400A431A61F0BDB6
:10061000008E024810B50446FFF740FE064B07481F
:100620001B68B3FBF0F303FB04F00023834202D00A
:1006300000BF0133FAE710BDC0FF032040420F00A6
:10064000020F0C235343024A20F070409850704729
:100650001444005020F070420C23000F584303F163
:10066000A04303F58843C3581A4214BF0120002059
:1006700070470000034B044A5B69106803F00103F4
:10068000D840704700460050C0FF0320034AD3689B
:1006900023F480331843D060704700BF00460050F9
:1006A000034A936923F4803318439061704700BF75
:1006B00000460050034A536A23F440331843506203
:1006C000704700BF00460050064AD36820B923F4A3
:1006D000807323F0010303E043F4807343F00103CC
:1006E000D360704710470050054BD3F8C4301B0748
:1006F000FAD4044AD36823F040031843D06070470B
:100700000040005000430050054BD3F8C4301B0795
:10071000FAD4044AD36823F080031843D0607047AA
:100720000040005000430050034AD368013823F0D2
:10073000FF030343D360704700460050034A136A27
:10074000013823F001030343136270470046005051
:10075000034A1369013823F001030343136170470F
:1007600000460050034A5369013823F00103034354
:100770005361704700460050034A9369013823F0E3
:10078000070303439361704700460050034AD3694F
:10079000013823F03F030343D36170470046005004
:1007A000034A536A013823F0FF030343536270473F
:1007B00000460050014B5860704700BF0046005093
:1007C000020F0C235343024A20F0704098507047A8
:1007D000484600500F4B5A6942F001025A615A696B
:1007E00001380139000642F0100240EA01215A6145
:1007F00059615A6942F040025A615A6922F0100266
:100800005A615A6942F480225A611A695207FCD52A
:10081000704700BF1047005010B50B4C63680128AB
:1008200043F4801363600AD1636823F48013636028
:100830006420FFF7EFFE636843F4002363606420E5
:10084000BDE81040FFF7E6BE104700500A4B1A689B
:10085000D20704D5094B1A68900506D470470122C7
:100860005A601A68D107FCD5F4E74FF400729A6019
:100870001A689205FCD470470042005000440050B2
:10088000034B186880F00800C0F3C000704700BF39
:1008900000430050104BD3F8C42012F0800F1A46CA
:1008A000F8D103F54073D96921F03001D961D2F84C
:1008B000C4100907FBD4DA6842F00802DA60064B7C
:1008C000D3F8C4205207FAD4044A08219160D3F81F
:1008D000C420002AFBD17047004000500043005064
:1008E00070B50C4D0C4E6B6823F480336B607468EC
:1008F00006F088FD094BB0FBF3F024F470230138B7
:1009000023F0300343EA004373606B6823F4003341
:100910006B6070BD1047005000470050A0252600B6
:10092000044B186800F46070A0F560735842584199
:10093000704700BF10470050034A536823F48033C8
:1009400023F002035360704710470050034A536876
:1009500043F4803343F00203536070471047005064
:10096000054A9368013823F4FE0343EA0043936089
:100970003220FFF74FBE00BF104700502DE9F04175
:100980000C46054690461F46069EFFF79DFE012C2D
:10099000314C52D135B906F035FD304DB0FBF5F094
:1009A000800501E04FF0C060636843F001036360BD
:1009B000636843F010036360A168294B08F1FF32BC
:1009C0000B4043EA02637A1E43EA0222784318236B
:1009D000B0FBF8F5B5FBF3F39B0D013B42EA034393
:1009E000A360636843F040036360636823F010030F
:1009F0006360636843F4802363602368164A590781
:100A0000FBD5536823F0010353602368DA07FCD455
:100A10003C20B5FBF0F0800D864201D2FFF7A0FF2D
:100A20005A20B5FBF0F0800D864201D2FFF798FF07
:100A30003046BDE8F041FFF793BFA368013E23F0C5
:100A40007F031E43A660636843F00103636023686D
:100A5000DB07FCD5BDE8F0811047005040420F0095
:100A6000FF8080F037B504460020FFF70FFEFFF748
:100A7000EDFEE3791BB9607AFFF746FE06E0FFF76B
:100A800009FFFFF7FDFE0028FBD0F4E71B4BD3F86E
:100A9000C430002BFAD1207AFFF7BEFE207CFFF78E
:100AA00043FE607CFFF754FEA07CFFF747FEE07C2E
:100AB000FFF758FEA37923B9E3784BB9FFF746FF58
:100AC00010E0FFF70DFFFFF72BFF0028FBD0F3E747
:100AD000FFF732FFA578A088E17862782378009547
:100AE000FFF74CFFE068B0F5803F01D1FFF7CEFD86
:100AF00003B0BDE83040FFF7D1BB00BF004000505D
:100B000030B5002390F824209342026918D25C018A
:100B100011194FF000451551856944F2F4544C60A9
:100B200040F2F45404FB03548C6090F824400133E9
:100B3000A34214BF1C46002402EB4412CA60E1E742
:100B400041F20C030168CA50002380F8273030BD01
:100B500030B5002390F825209342426914D2590100
:100B60000D4D5550C569541840F2F45101FB035125
:100B7000A16090F8251001338B4214BF1946002163
:100B800002EB4112E260E5E741F210030168CA504E
:100B9000002380F8263030BD00001030026838B5E0
:100BA00002F580530446196841F001011960196883
:100BB00011F00105FBD14FF480611160802191613A
:100BC00041F218010F4850500F4A1A602046FFF7B3
:100BD00097FF2046FFF7BCFF236841F214024FF055
:100BE000FF3199506FF07C42C3F81021C3F80C21FB
:100BF0006FF0C022C3F800224FF40272DA6325625C
:100C000038BD00BF040020028020010290F8273088
:100C100002695B01D058002808DB00F40343B3F5F8
:100C2000407F05D1C0F30D40043870470020704765
:100C30004FF0FF3070470000154B16491A69164BEC
:100C40001B6802F0010293405B088B42026801D8E6
:100C5000082318E011498B4201D80C2313E01049F6
:100C60008B4202D80020106170470E498B4201D898
:100C7000042308E00C498B4201D8102303E00B4900
:100C80008B4203D814231361002070470220704761
:100C900000460050C00E1602C0FF032000879303D9
:100CA00000E1F50580D1F00800C2EB0B80B2E60E42
:100CB00010B5064C0420FFF77DFD2046FFF780FDB0
:100CC0002046BDE81040FFF7BBBC00BF0400002079
:100CD00010B50468206900F03C0040F0010040EAD3
:100CE000821242EAC12121614FF6FF72206910F0A1
:100CF000010002D162691A8010BD013AF6D10220CA
:100D000010BD10B504686361236903F03C0343F030
:100D1000030343EA821242EAC12121614FF6FF73C5
:100D2000206910F0010002D0013BF9D1022010BD72
:100D30000268D36B44F2450023EA11430840D363B1
:100D4000C1F30E0308B143F4803342F2BA71194083
:100D500009B143F4004341F21C0011580B431350F6
:100D600070470368DA6B41F21C0042EA1142DA6311
:100D70001A58C1F30E0122EA0101195070470268A6
:100D800041F21403D058D358C00348BF41F4803116
:100D90001B0448BF41F4004141F21403C1F31001A8
:100DA000D150704790F8273001695B01CA5842F072
:100DB0000042CA5090F8273090F824200133DBB26B
:100DC0009A4280F8273004BF002380F8273070470C
:100DD00090F8263080F8283041695B01CA5842F00B
:100DE000004242F44002CA5090F8263090F8252084
:100DF0000133DBB280F826309A424FF0000308BF7F
:100E000080F826300362704701F0FC03184401F0BB
:100E1000030110B5C9000469F8238B4024EA0303D9
:100E2000036103698A401343036110BD436F4900A6
:100E300010B503248C4023EA04034367436F8A40C0
:100E40001343436710BD000038B50D46044600F05B
:100E50006FF92B7923B920462968022200F09EF809
:100E6000084B63634FF4A263A3632B791BB96B79BF
:100E700043F00B03E3634FF0FF33E364EB88236439
:100E800038BD00BF02013F0738B50C460546FFF7E5
:100E9000F1FBB4EB500F08D828462146022200F09F
:100EA0007DF8003018BF012038BD012038BDC36B6C
:100EB00023F47F03C363C36B1943C1637047D0F846
:100EC0000C3113F0E06F0CBF406DD0F81C0180B204
:100ED0007047836B1B065FBF036C23F00F03036433
:100EE000002048BF02207047036C01F4FE3223EA61
:100EF00002030364C36B490389B223EA0101C1639E
:100F0000704770B50E46044600F012F9F579316865
:100F1000002D08BF10252A46204600F03FF8B3797F
:100F2000013B5B0043F440336D0843F0010301359E
:100F300043EA0523E3633379013B1B0643F48173E2
:100F400063637379626B03B93379013B42EA03430C
:100F500063634FF4A063A3634FF0FF33E36433890B
:100F6000236470BDD0F8083113F0E06F08D1836BB3
:100F70001B06FCD44FF40053C364C0F880107047C4
:100F8000C0F880117047D0F80C3113F0E06F0CBF3F
:100F9000406DD0F81C0180B27047000063292DE934
:100FA000F04105460C46164630D97AB3FFF762FB8E
:100FB000642140F2FF3CB0FBF1FEB4FBF1F40121EF
:100FC0007443CEEB8E270A466046B7FBF4F34FEA34
:100FD0009328B8F5806F06D2C3F3090363453EBF7B
:100FE0009C46414602460138CEEB0707EDD142F45C
:100FF00000422A616A69074B013E134043EA862397
:10100000013943EA01436B61BDE8F0810120BDE88D
:10101000F08100BFEF8000FC30B5D0F8084124F02B
:10102000E064C0F80841D0F80851054C2C40214339
:1010300041EA026242EA0323C0F8083130BD00BF32
:10104000C0C0FFF830B5D0F80C4124F0E064C0F81F
:101050000C41D0F80C51064C2C4044F080542143F4
:1010600041EA026242EA0323C0F80C3130BD00BFFE
:10107000C0C0FFEFD0F80C3123F0E063C0F80C31B2
:10108000D0F80C31090641EA022223F47C531343C1
:10109000C0F80C31704710B5072384698B4024EAEF
:1010A00003038A401A43826110BD10B50723D0F8AC
:1010B00008418B4024EA03038A401A43C0F8082100
:1010C00010BD10B50723D0F80C418B4024EA030370
:1010D0008A401A43C0F80C2110BD000008B50F4B20
:1010E000984206D14FF40060FFF76AFB4FF40060AE
:1010F0000EE00B4B984204D10A48FFF761FB094808
:1011000006E0094B984207D10848FFF759FB07480A
:10111000BDE80840FFF794BA08BD00BF08000340CF
:10112000080002488000001008400248000100103A
:10113000164B984210B5044603D003F5007398424D
:1011400001D1134815E0134B984203D003F5007307
:10115000984206D11048FFF733FB0F48FFF770FAAB
:1011600009E00E4B984203D003F50073984202D178
:101170000B48FFF7B3FF0323E360E368DB07FCD50D
:10118000236C23F00F03236410BD00BF0000034055
:1011900008000340000002488000001000400248A0
:1011A0000840024808B50120FFF70AFB0120BDE80E
:1011B0000840FFF745BA38B50D460446FFF7F2FF81
:1011C0006B6923606B6843F40043C4F88030AB68FC
:1011D000C4F8A030EB68C4F8A4302B69C4F880329E
:1011E0002B68C4F8B83038BDD0F8803043F00043E5
:1011F000C0F880300023084A52F82320D2F880102B
:1012000011F4403F04D0D2F8801011F0805FF9E76C
:101210000133042BEFD17047647A0008F0B542B96E
:1012200001F01F051F26C1F302214FF4E06E0827CD
:1012300009E0C1F304454FF4F816C1F302614FF021
:10124000E06E1022182700EB8303B940D3F8A040CA
:1012500024EA0E04214321EA060195402943C3F8FC
:10126000A010F0BDF8B500220C46054613464968AB
:10127000FFF7D4FF2846616801220023FFF7CEFF65
:101280002846A16800220123FFF7C8FF0122134668
:101290002846A168FFF7C2FF2369E178C5F88030CE
:1012A000E368C5F8B830C1F30012C1F38103C1F39C
:1012B0004017C1F380106188C1F30906217801F05D
:1012C000070141EA0641C5F8F011D5F8F01141F0E7
:1012D000004141EA027242EA836242EA477343EA0A
:1012E0008073C5F8F031F8BDD0F8803023F00303E7
:1012F0001943C0F880107047D0F8C0308A4288BFC8
:10130000013123F003031943C0F8C0107047D0F82F
:10131000C03023F00303C0F8C03070470C4BC21A32
:10132000534253410B4A904205D002F580629042ED
:1013300008BF032300E00223994238BF0131D0F8EF
:10134000C020033101238B401343C0F8C0307047E5
:1013500000480040004C0040D0F884300A7823F068
:101360008073C0F88430D0F8843010B523F00303C4
:10137000C2F38104234312F0030218BF43F00803B1
:10138000C0F884304B6843F0802343F40003C0F876
:1013900000318B6843F00103C0F80431022A02BF18
:1013A000D0F8043143F48033C0F80431D0F88430ED
:1013B00043F08073C0F8843010BDD0F8C03123F002
:1013C0000F031943C0F8C011704730B50123D0F89E
:1013D00088508B4025EA0304137B8B402343C0F8DD
:1013E000883092F90D30002B19DB012907D1D0F894
:1013F000B03023F4F853C0F8B030082507E029B91D
:10140000D0F8B03023F01F03C0F8B030002592F9B7
:101410000D30D0F8B040AB402343C0F8B030D0F826
:10142000C84053682343C0F8C830D0F8D040936810
:101430002343C0F8D0308031136840F8213030BDEC
:10144000072910B50BD8D0F8B04189000F238B4085
:1014500024EA03038A401A43C0F8B02110BD01F109
:1014600080410839D0F8B44189000F238B4024EA29
:1014700003038A401A43C0F8B42110BD08B50C4BD1
:101480001A680AB90B4A1A601A680B49C31C23F080
:10149000030313448B4203D2054910460B6008BD79
:1014A00006F09AF90C2303604FF0FF3008BD00BF2F
:1014B000F48AFE1FA0300020C0FF0320704743685D
:1014C000006893F82C3001229A40914234BF01F118
:1014D000FF3202F1FF321946FFF7CCBD43685B686B
:1014E000184770B58468E368A268934205461ED227
:1014F000426892F82B208AB12868D0F81431DE04B3
:101500000BD4E368A268934230D22268D15CFFF723
:1015100029FDE3680133E360EEE770BD22680068EF
:10152000D15CFFF71FFDE3680133E36070BD036822
:10153000D3F81421110519D5416891F82B2032B147
:10154000D3F8082122F08042C3F8082103E01A6C86
:1015500022F400521A649A6B1206FCD400232376FC
:1015600023608B6813B1BDE87040184770BD4368B5
:1015700093F82C302DE9F0410546846853B3286870
:10158000D0F814311B071BD4666923699E4206D22A
:101590006768FFF7F8FCB8556369013363616269F6
:1015A00023699A42EBD100232A686376D2F80C3182
:1015B00023F0C043C2F80C316B68DB6803B1984775
:1015C000636921698B4222D22846C91ABDE8F041DD
:1015D000FFF775BF666923699E4207D20068676896
:1015E000FFF7D1FCB8556369013363616269236910
:1015F0009A420CD100232A686376136C23F440438B
:1016000013646B68DB6813B1BDE8F0411847BDE8AF
:10161000F08100F00700C0F10702062A28BF062269
:1016200000B1013801239340013B03FA00F07047F9
:1016300038B52B4C2B4A2C482C4D0321FEF7A6FF26
:1016400020462B49FFF75DFCE36923F0070343F0D5
:101650000203E3612046302104220123FFF7DCFC72
:101660002046202104220023FFF7ECFC236C2148B4
:10167000214A23F00F0343F0020323640D21FEF7F8
:1016800085FF204610210022FFF705FD204610218E
:101690000422FFF70AFD204610210522FFF711FD65
:1016A000132105222046FFF70CFDE868134CC0F318
:1016B0000220FFF7AEFF80004FF08073C0B284F8C5
:1016C0005803A360E868C0F30220FFF7A2FF800080
:1016D000C0B284F859034FF00073A360002038BDF6
:1016E00000020340A47A00080086024800ED00E0F2
:1016F000C87A000800830248BC7A000800E100E0D4
:101700000148FFF7EEBE00BF0088FE1F0148FFF74B
:101710002EBF00BF0088FE1FF0B52249224C2422B4
:1017200002FB00122368956926460BB92260F0BDC2
:101730001C469A69AD1A002D22DCD3F804E024225D
:101740004243BEF1000F08D08F18CEF800708B50C6
:10175000C7F804E022465F6002E08C500A446260F1
:10176000242444430F1951F804E0DEF818402C44B7
:10177000BC61DEF818703C1BCEF81840144607E038
:101780001A683AB9242202FB001253601A6095616C
:10179000012200E000221B680BB1002AC9D034608E
:1017A000F0BD00BF108DFE1F1C8BFE1F104B2422AE
:1017B000504330B51C181958626852B90D4D296054
:1017C00001B930BD8D69A4694A602C448C611A50FE
:1017D00030BD116009B9616030BD19584A601958AF
:1017E000A2698D692A448A6100221A50626030BD64
:1017F000108DFE1F1C8BFE1F214A70B5214D1368F2
:101800002C6801331360002C39D0A369012B02D955
:10181000013BA36170BD0023A361A669002E2ED1F8
:1018200094F820306BB16069FFF7C0FF1649626918
:101830006673012303FA02F20B6823EA02030B60CA
:101840001AE0237B43B9637B012B15D16069FFF755
:10185000ADFF022363730CE0012B10D1637B012BDE
:101860000AD16069FFF7A2FFE369A3616069FFF72E
:1018700053FFA368206998472C68002CCDD170BD18
:10188000148BFE1F1C8BFE1F188BFE1F027810B5D9
:1018900032BB144B14491A60144B59601449FC2490
:1018A00081F823409A6007221A60CB68C3F30223B1
:1018B0000BB1591E00E01946C3F10703062B4FF088
:1018C000010228BF062302FA03F3013B8B409B0071
:1018D0000749DBB281F82330064B00211960027002
:1018E000002010BD1C8BFE1F7F32020010E000E0C4
:1018F00000ED00E0188BFE1F014B1868704700BF19
:10190000148BFE1F42680B4692F87D1010B591B102
:101910008BB18468006824680122082C02FA01F265
:1019200088BF5B085208934238BF03F1FF32BDE81D
:101930001040FFF79FBB10BD43685B681847836882
:1019400093F8202070B504460E46002A40F0C78068
:10195000DB7F002B40F0C3800068FFF7BAFA054632
:10196000002840F0BD80636893F8872095420AD232
:1019700005F10C02013553F822300022186819795C
:10198000FFF742FAEFE79B6A002218681979FFF720
:101990003BFAA3681B7F072B2ED8DFE803F0042D4A
:1019A0002D2D042D071163689B6820E063689B68F8
:1019B000002218681979FFF727FA63681B6916E097
:1019C00063689B68002218681979FFF71DFA63683D
:1019D0001B69002218681979FFF716FA63689B697A
:1019E000002218681979FFF70FFA63681B6A1868F4
:1019F00019790022FFF708FA31462068FFF744FA08
:101A000005462168606855B94B6923F4FE4343F4E9
:101A1000807290F88830013B42EA83234B614B6926
:101A200023F05042D0F8803013434B610B6C23F00D
:101A30000F0343F001030B640026636893F88720CB
:101A400096420AD203EB860301361A6B1B6D1068AF
:101A500011791A78FFF7D8F9EFE79A6ADB6A10680C
:101A600011791A78FFF7D0F9A3681B7F072B37D8B5
:101A7000DFE803F0043636360436081462689368EB
:101A8000D26826E062689368D2681868197912787B
:101A9000FFF7BAF96268136952691AE062689368DD
:101AA000D268186819791278FFF7AEF9626813697D
:101AB0005269186819791278FFF7A6F96268936974
:101AC000D269186819791278FFF79EF96268136A6B
:101AD000526A186819791278FFF796F900E0022522
:101AE000284670BD83681A6830B5092A5C689A6810
:101AF00034BF01210221A242026837D2406890F827
:101B00007C00E8B1D2F81401C50418D49868A0424A
:101B10004DD293F8210020B1187F4FF6FF75603049
:101B200007E098699D6802290CBF455B455D187FF9
:101B3000603042F82050986808449860E2E730BD71
:101B400093F8210020B1187F4FF6FF74203007E092
:101B500098699C6802290CBF045B045D187F2030E3
:101B600042F820409A681144996030BDD2F81411AF
:101B70000C051CD5406890F87C1031B1D2F80811E2
:101B800021F08041C2F8081103E0116C21F40051EA
:101B90001164916B0906FCD4002283F820209A611D
:101BA000026F22B1DB7F13B9BDE83040104730BD72
:101BB00070B584682368092B436893F87D30054627
:101BC00034BF01260226002B3DD02868D0F81431FE
:101BD000190726D42269E3689A420FD2FFF76FF9FA
:101BE00023696269D054022E01BF236962699B1880
:101BF000000A08BF58702369334423612269E368EF
:101C00009A42E2D100232A68E37784F82130D2F89F
:101C10000C3123F0C043C2F80C316B685B6F03B129
:101C200098476B68E16893F87D00226901380123C9
:101C30008A1A83409A4259D823692846C91ABDE8AE
:101C40007040FFF75FBE0068036D9A0413D52269E8
:101C5000E3689A420FD2FFF732F923696269D054E0
:101C6000022E01BF236962699B18000A08BF5870E1
:101C70002369334423612868036D5B0413D522690B
:101C8000E3689A420FD2FFF71AF923696269D054C8
:101C9000022E01BF236962699B18000A08BF5870B1
:101CA00023691E4426612269E3689A421ED16B684B
:101CB00093F87D303BB12A68D2F80C3123F0C04351
:101CC000C2F80C3104E028684FF44041FFF70CF9EA
:101CD0000023E377636184F821306B685B6F012236
:101CE00084F8222013B1BDE87040184770BD00F0A1
:101CF0000700C0F10702062A28BF062200B10138FA
:101D000001239340013B194001FA00F070470000A5
:101D100038B5434C4349444D2046FFF795F8636B73
:101D2000424A43F001036363636B23F0706343F043
:101D3000E0636363636B43F47C136363636923F061
:101D400050436361636923F4FE4343F4A06363611A
:101D500028460721FEF71AFCE3693548354A23F087
:101D6000500343F01003E361E36923F0070343F0FA
:101D70000203E361236C23F00F0343F001032364A8
:101D80000121FEF703FC2C482C4A0121FEF7FEFB43
:101D900028462B4A2B4D0521FEF7F8FB20464FF431
:101DA0000021FFF784F8204610210022FFF773F985
:101DB0002046012310210422FFF72EF9204610218E
:101DC0000122FFF772F900210B4620460422FFF79B
:101DD00039F9204610210322FFF773F90322204628
:101DE0001321FFF76EF9E868174C3F21C0F302207A
:101DF000FFF77DFF80004FF40013C0B284F8550355
:101E0000A360E8683E21C0F30220FFF770FF800066
:101E1000C0B284F857034FF40003A360002038BD1C
:101E2000000003403888FE1F008402484C8BFE1FD0
:101E300000850248A488FE1F00810248D47B000868
:101E4000F87A000800ED00E000E100E038B5434C0E
:101E50004349444D2046FEF7F7FF636B4248434A2F
:101E600043F001036363636B23F0706343F0E0634B
:101E70006363636B43F47C136363636923F05043D0
:101E80006361636923F4FE4343F4A06363610F213C
:101E9000FEF77CFBE3693648364A23F0500343F0F3
:101EA0001003E361E36923F0070343F00203E361F6
:101EB000236C23F00F0343F0010323640F21FEF78B
:101EC00065FB2D482D4A0021FEF760FB2C4A2D486A
:101ED0000E21FEF75BFB20464FF40021FEF7E7FFE3
:101EE000204610210222FFF7D6F820460123302198
:101EF0000422FFF791F8204610210322FFF7D5F8BE
:101F00000023204620210422FFF79CF820461021C0
:101F10000122FFF7D6F8012220461321FFF7D1F85E
:101F2000E868194C3F21C0F30220FFF7E0FE800073
:101F30004FF00053C0B284F85D03A360E8683E210F
:101F4000C0F30220FFF7D3FE8000C0B284F85B0329
:101F50004FF00063A360002038BD00BF00000248BE
:101F6000DC88FE1F00ED00E000820248248BFE1F8B
:101F7000008102480C88FE1F00840248D47A0008C1
:101F8000987B00080083024800E100E038B5454C2A
:101F90004549464D2046FEF757FFE36B4448454A06
:101FA00023F00803E363636B43F001036363636B34
:101FB00023F0706343F0E0636363636B43F47C136B
:101FC0006363636923F050436361636923F4FE43F1
:101FD00043F4A06363610221FEF7D8FAE369364A4D
:101FE00023F0500343F01003E361E36923F0070398
:101FF00043F00203E361236C23F00F0343F001037A
:10200000236428460921FEF7C1FA284608212B4AF5
:102010002B4DFEF7BBFA2B4A2B480521FEF7B6FAEB
:1020200020464FF40021FEF742FF204610210222F5
:10203000FFF731F82046012310210422FEF7ECFFC0
:10204000204610210222FFF730F800210B462046DF
:102050000422FEF7F7FF204610210022FFF731F897
:10206000002220461321FFF72CF8E868174C3F2187
:10207000C0F30220FFF73BFE80004FF08053C0B258
:1020800084F85C03A360E8683E21C0F30220FFF7F8
:102090002EFE8000C0B284F85A034FF08063A36024
:1020A000002038BD000202489C88FE1F00810248C3
:1020B00000840248388BFE1F8888FE1FF87B0008CA
:1020C00000ED00E0A87C00080083024800E100E089
:1020D0000148FFF707BD00BFE488FE1F0148FFF776
:1020E00067BD00BFE488FE1F0148FFF7FBBC00BFCF
:1020F0002088FE1F0148FFF75BBD00BF2088FE1F40
:102100000148FFF7EFBC00BF2C88FE1F0148FFF716
:102110004FBD00BF2C88FE1FF8B5037E022B04467E
:1021200029D140692169FFF746F8271F002657F893
:10213000043F93E80300FFF795F83B680321186814
:10214000FFF7D2F839680B7A4BB9606906F11005D0
:10215000D0F880200123AB401343C0F88030013613
:102160000023042E4B721D46E1D1637E13B16069DA
:10217000FFF73AF82576207EF8BD000008B50D4837
:10218000002105F0C3F80C4B93F8332028B9510710
:1021900008D5184602F0D2F904E0520702D41846D6
:1021A00002F0B0F94FF47A7004490022BDE808400B
:1021B00004F068BD4089FE1F7089FE1F7D21000864
:1021C0000A8940F2F4539A422DE9F0410D463ED877
:1021D000214B93F826205969520188188A58002A01
:1021E0001E4609DA1B6841F214020221995041F29D
:1021F0000402002199502AE0D0F808806FF0010114
:10220000284602F0EDF92C460027404661686289B5
:1022100000F020FA638924681F449844002CF4D10C
:102220000221284602F0DCF996F8262073690A4854
:1022300003EB42135F60FEF7CBFD336841F21402FB
:102240000221995041F2040220469C5000E0FE20F9
:1022500040B2BDE8F08100BF4089FE1F2DE9F0418A
:10226000234C94F8273022695B01D358002B32DBD2
:102270002046FEF7CBFC40F2F353421E9A4227D889
:10228000811C89B20420032202F0D8F9074610B35A
:102290006FF0010102F0A4F994F82720236903EB01
:1022A00042133D46D3F80880002668686A8908EB27
:1022B000060100F0CFF96B892D681E44002DF4D182
:1022C0003846022102F08CF90948FEF76BFD03E065
:1022D0002046FEF767FD0027236841F214028021A3
:1022E000995041F20802002199503846BDE8F0812A
:1022F0004089FE1F144B4FF4805210B5C3F88C2058
:10230000BFF34F8FBFF36F8FFFF7A8FF0446A0B155
:102310006368D88901F08FFEB0F5006F03D040F6F6
:102320000603984205D1094920460B6998470028C1
:10233000EAD0204602F062F9E6E7034B4FF4805200
:10234000C3F88C21DA6010BD00E100E07089FE1F47
:102350007047000008B504484021FEF710FDFFF764
:10236000C9FFFFF7F5FF08BD4089FE1FFEE700002B
:1023700038B590F833305B0758D5414C41480021BF
:1023800004F0F3FF20B9013CF8D10420FFF7EEFF81
:102390003C4C0021204604F0C6FF002105462046A3
:1023A00004F0D2FF22681368284380B223F49043DC
:1023B0000343136040212046FEF7BAFC324BDB6832
:1023C000C3F30223C3F10701062928BF06210BB17D
:1023D0005A1E00E01A4601238B40013B03F03E03E6
:1023E00093409B00294A2A48DBB282F86C334FF4B1
:1023F0008053C2F88C31D360236841F21802995897
:1024000041F400519950196841F008011960995838
:1024100041F0020199501A6842F004021A6002F079
:1024200055F81B48BDE8384000F077BF154C4021F7
:102430002046FEF796FC154B4FF48052C3F88C20D3
:10244000BFF34F8FBFF36F8F236811481A6822F0D4
:1024500008021A6041F21802995821F4005199506B
:10246000196821F004011960995821F0020199506E
:1024700002F03BF80648BDE8384000F03FBF00BF1F
:10248000FFFF0F004089FE1F00ED00E000E100E0CB
:102490007089FE1FF0B585B004AC002504F80C5D12
:1024A000604B4361604B836104214FF480332246CB
:1024B00006465E480293FEF769F85C48052122460D
:1024C000FEF764F8594802212246FEF75FF85748A4
:1024D00003212246FEF75AF8544829462246FEF7C1
:1024E00055F8534803212246FEF750F84F4808217B
:1024F0002246FEF74BF84D4809212246FEF746F8E2
:102500004A480A212246FEF741F84A480521224658
:10251000FEF73CF848480B212246FEF737F8012722
:10252000882345488DF804300A2122468DF80C7026
:10253000FEF72CF80B2140483A46FEF777FC0323C0
:1025400065F3830365F3051365F3871343F47F3362
:1025500043F44073022265F3934362F39753374A7F
:10256000374865F39A631360FEF7A2FB3448FEF721
:1025700063FB3348334A294604F070FE10B1C0B201
:10258000FFF7F4FE2E4D2846FEF708FB2B68AA68DD
:10259000E96819645A641A68274822F480121A609C
:1025A0005A6822F020025A608825012722460C2111
:1025B0008DF80C708DF80450FDF7E8FF22461D4899
:1025C0008DF804500221FDF7E1FF22461A488DF8EC
:1025D00004500D21FDF7DAFF224617488DF804500C
:1025E0000E21FDF7D3FF224612488DF8045000213A
:1025F000FDF7CCFF394622460E488DF80450FDF712
:10260000C5FF114B11490A2283F833204FF47A7029
:10261000002204F037FB30460D4901F09BFF0020FB
:1026200005B0F0BDC93A0008C12100080085024884
:102630000082024800860248008102484040005063
:102640004089FE1FB87D00087089FE1F7D210008AB
:1026500071230008130911D051F804CB40F804CBC2
:1026600051F804CB40F804CB51F804CB40F804CB2C
:1026700051F804CB40F804CB013BEDD112F00F032D
:1026800005D011F801CB00F801CB013BF9D170471F
:10269000FFF732B94389102B70B504460D463DD97A
:1026A00040688378C689D90714D5012B08D1C3782F
:1026B00083B903795E2B0DD1637B43F0100308E0EF
:1026C00002301949062205F0C3F818B9637B43F0BC
:1026D00008036373082E03D0B6F5C16F0FD01DE059
:1026E00095F833301A0719D520466FF00F0101F025
:1026F00077FF98B92046294601F046FB11E095F88E
:1027000033301B070AD520466FF00F0101F068FF38
:1027100020B92046294601F05DF802E0204601F08C
:102720006DFF002070BD00BFC07D00082DE9F041A5
:102730000546BDF818000C4616461F4601F07BFC06
:1027400010218046204601F04BFF88B96168A1F84E
:102750000E803B68C1F80230BB88CB8033688B6049
:10276000B3888B81AB6928462146BDE8F041184704
:102770006FF00100BDE8F081437A8B421FBF002358
:1027800041728372C3827047838A30B504695D1CCD
:102790002344858283F8F010838A01695C1C0B4412
:1027A000848283F8F02030BD838A026910B55C1CF6
:1027B00013440A0A848283F8F020838A02695C1C2D
:1027C0001344848283F8F01010BD838A026910B527
:1027D0005C1C13440A0E848283F8F020838A026909
:1027E0005C1C1344C1F30742848283F8F020838A7F
:1027F00002695C1C1344C1F30722848283F8F02031
:10280000838A02695C1C1344848283F8F01010BD33
:102810002DE9F0410C4616460746002800F0988046
:10282000002900F0978000204FF49A71024601F0D1
:1028300005FFE060002800F08F80032E02D1637A4C
:10284000032B07D1A37A464D13B905F0C1F82860D0
:102850002B682360E3685A682261012313702269A0
:102860005370236997F82C209A7023690025DD7036
:102870002068D4F8108001F0E3FB2369C8F8040055
:10288000042E1D725D729D72DD721D735D739D73EA
:10289000DD7308D0F21F012A05D9032E05D1627A13
:1028A000043A012A01D87A68DA6000221A745A744C
:1028B0009A74DA741A755A759A75DA751A765A76A0
:1028C0009A76DA7697F82C00236991B2884205D976
:1028D000052903D8B91891F82D1000E00021134400
:1028E0000132102A1977EDD100232269D118013362
:1028F0000022402B81F82C20F7D12369991801324E
:102900000023802A81F86C30F7D122696FF07D00B6
:10291000632182F8ED00532082F8EC1082F8EE007B
:1029200082F8EF10A38222691A4482F8F030013352
:10293000442BF8D1204635210122FFF725FFA38A39
:102940002269591C1344A182002083F8F06004E03E
:10295000F02002E0FA2000E0FF2040B2BDE8F08164
:10296000608BFE1F10B5044630B1C06808B101F09D
:1029700045FE0023E360236110BD38B5446A054677
:1029800008212046FFF7F8FE284604F1280100221E
:1029900001F020F8A37AFF2B1CBF0133A37201239F
:1029A000E38238BD37B50546002861D0446A002C63
:1029B0005ED000232384636B5A1C0BD03C221E3351
:1029C000B3FBF2F34FF6FF72934228BF134603B9ED
:1029D00001236384A36B581C0DD03C221E33B3FB30
:1029E000F2F34FF6FF72934228BF134603B9012357
:1029F0002383238BA383E36B591C0DD03C221E330E
:102A0000B3FBF2F34FF6FF72934228BF134603B9AC
:102A100001236383638BE383638B228B9A4202D30C
:102A20000BB100232383E37A0BB1E36A0BE094F844
:102A300028301A0601D4FF2305E0BF2B8CBF6FF0AE
:102A40007F434FF6FF730093236B01932BB9A36A67
:102A5000009A134043F08073019320460A21FFF748
:102A60008BFE284604F128016A4601AB01F0D4FC34
:102A700003B030BD70B5114C2678B6B904F082FBB6
:102A80000F4D2860B0B1027A0E4942F02002027266
:102A9000442204F059FA0B492868432204F02EFB23
:102AA00028680949324604F051FB2378013323702A
:102AB000002000E0FF2040B270BD00BF648BFE1F0D
:102AC000688BFE1FD07D00084D2E000880B1838AE0
:102AD0000269591C81821344FF2283F8F020838A03
:102AE000432B05D80269591C818213440022F4E764
:102AF0007047000038B5184D0023C3620363EB78BC
:102B0000044613B1154BDB6843632B7913B1134BA8
:102B10001B6901E0636B5B08A3636B7913B10F4B17
:102B20005B6903E0636BC3EBC303DB08E3636368C8
:102B30001B69A362AB792BB1084B986901F080FA4D
:102B40000123E062E372EB7923B1044BD86901F011
:102B500077FA206338BD00BF308EFE1F388EFE1F0F
:102B600038B5064B1C78013CE4B21C7024B9044D06
:102B7000286804F0EFFA2C6038BD00BF648BFE1F9C
:102B8000688BFE1F73B5446A00230646A362204685
:102B90000621FFF7F1FD304621460122FFF738FEFE
:102BA000054600283BD1022220463921FFF7ECFDE3
:102BB0002046718DFFF7F8FD204637210322FFF7ED
:102BC000E3FDA38A2269591C13440122A18283F8E0
:102BD000F020A38A2269591C13440322A18283F89E
:102BE000F020A38A2269591C13441C22A18220468A
:102BF00083F8F020FFF76AFFA18AE068F03189B21C
:102C000001F0A2FD124B0193124B00961868E16887
:102C1000114A432304F0ECF92046FFF7A3FEA37A00
:102C2000FF2B1CBF0133A372A27A052A9DBF4FF46C
:102C30007A7393409BB24EF660234FF4FA722846A3
:102C400003F2F31393FBF2F3E38202B070BD00BF13
:102C5000D07D0008688BFE1FCC7D000873B5446AE8
:102C6000064603212046FFF787FD30462146032212
:102C7000FFF7CEFD0546002846D102222046392125
:102C8000FFF782FD20464FF41071FFF78DFD0422FF
:102C900032212046FFF778FDA06A01F0D1F9014604
:102CA0002046FFF792FD204637210322FFF76CFDF7
:102CB000A38A2269591C13440122A18283F8F020BF
:102CC000A38A2269591C13440322A18283F8F020AD
:102CD000A38A2269591C13441C22A182204683F82E
:102CE000F020FFF7F3FEA18AE068F03189B201F02D
:102CF0002BFD134B00961868E168124A432304F039
:102D0000C9F92046FFF72EFEA37AFF2B1CBF013323
:102D1000A372A37A092B9FBFC3EB431203EB820379
:102D2000DB009BB288BF42F210734FF4FA72284660
:102D300003F2F31393FBF2F3E38202B070BD00BF22
:102D4000688BFE1FCC7D000873B5446A06460121DE
:102D50002046FFF711FD304621460322FFF758FDBC
:102D60000546002853D1022220463921FFF70CFDE9
:102D70002046718DFFF718FD042232212046FFF70F
:102D800003FDA06A01F05CF901462046FFF71DFD36
:102D9000042236212046FFF7F7FC606A01F050F963
:102DA00001462046FFF711FD204637210322FFF799
:102DB000EBFCA38A2269591C13440122A18283F8E7
:102DC000F020A38A2269591C13440322A18283F8AC
:102DD000F020A38A2269591C13441C22A182204698
:102DE00083F8F020FFF772FEA18AE068F03189B223
:102DF00001F0AAFC124B0193124B00961868E1688F
:102E0000114A432304F0F4F82046FFF7ABFDA37A00
:102E1000FF2B1CBF0133A372A27A052A9DBF4FF47A
:102E20007A7393409BB24EF660234FF4FA722846B1
:102E300003F2F31393FBF2F3E38202B070BD00BF21
:102E4000D07D0008688BFE1FCC7D0008B64B516812
:102E50002DE9F04F5F68D7F8249087B09346B9F119
:102E6000000F7DD099F80830002B76D053892B2B9A
:102E700073D90B78022B70D13A4601F11B0012F87E
:102E80002C4F0023DDB2A5420AD2062B08D012F83F
:102E9000016F10F8015FAE4203F10103F2D05CE074
:102EA000486801F0CDF8D9F80030984255D19F48D4
:102EB0000021082204F0DCFCBBF80A302B2B4CD993
:102EC000DBF80430C9F80430BBF808A000230093F5
:102ED000F0245D466A89944209D32D68A41AC2EB96
:102EE0000A0AA4B21FFA8AFA002DF3D135E002943F
:102EF0006B680193544504D38C4A13781146ABB9DF
:102F000038E0019B195DFF29F6D06889621CA31C7B
:102F100082429BB203DA019A2244527819E02A686D
:102F2000002A00F0E8805268127812E0804B1B689B
:102F30000020012B107019D0022B05D10023009323
:102F40004FF06C0A2C24C4E7032B13D10123009308
:102F50000CE0342969D1012A60D00023C9F804307B
:102F6000584601F04BFB07B0BDE8F08F4FF0EC0A7C
:102F70006C24AEE7009B002BE0D14B78002BECD00B
:102F80006B4A1379052B18D199F80930012B0AD116
:102F9000786AFFF7AFFD97F833301B07384609D53D
:102FA000FFF7EBFCD9E7033B022BD6D8786AFFF793
:102FB000A1FD3846FFF7F6FCCFE7062B14D199F8B0
:102FC0000930DA1E022A01D9012BC6D1786A0C21F8
:102FD000FFF7D2FB574938460A460B4601F01CFA68
:102FE0003846FFF7CFFDB8E7022BB6D199F8093084
:102FF000062BB2D1BDF80030A9F816304B4B7C6AD5
:103000009B78002BA9D0906801F01AF86368606281
:103010001B69A3623846FFF797FE9EE70299F029E5
:103020009BD116464FF0000809E074D8012949D019
:103030004FD2013C0026A4B24FF0FF383246023492
:1030400012FA84F4A4B25EB300220592374A12F851
:1030500008202ABB042E14BF1FFA86FCB446624621
:10306000284605A9CDF80CC001F007FCDDF80CC01E
:1030700060457FF472AF042E04D1059800F0E0FFA4
:10308000059005E0012E7FF468AF9DF8143005939C
:10309000264A012302F80830254B059A43F82820D8
:1030A0006A899442FFF426AFA41AC2EB0A0AA4B2BA
:1030B0001FFA8AFA5445BFF41FAF2D68002D7FF424
:1030C00017AF4AE7042A7FF448AF16464FF00608C8
:1030D000B5E7032906D1032A7FF63FAF4FF0070873
:1030E0000426ACE7332913D1042A7FF436AF164601
:1030F0004FF00308A3E7362932D83329BFF42DAFA8
:1031000001293FF42AAF94D303293FF426AF0022CC
:103110009C18A4B2C4E736290ED1042A7FF41DAF4F
:1031200016464FF002088AE7588EFE1F308EFE1FAB
:10313000388EFE1FD07D000801D2012A02E03A2914
:1031400005D1042A7FF409AF1646904677E73B295C
:10315000DED1042A7FF401AF16464FF005086EE772
:103160003A3901297FF6F9AED1E700BF436A93B13E
:103170005A7A0A2A0BD8DFE802F00E0A0A06060677
:103180000A0A0A0A060000229A72FFF767BD0022A7
:103190009A72FFF7F7BC704737B5054600283CD058
:1031A000446A002C39D0637A082B36D10A68A36AA6
:1031B0009A4232D120460C21FFF7DEFA28462146FA
:1031C0000422FFF725FB08BB042232212046FFF72B
:1031D000DBFAA06A00F034FF01462046FFF7F5FA5B
:1031E0002046FFF773FCA18AE068F03189B201F054
:1031F000ABFA0B4B01930B4B00951868E1680A4A38
:10320000432303F0F5FE2046FFF7ACFBA37AFF2B28
:103210001CBF0133A3721423E38203B030BD00BF8F
:10322000D07D0008688BFE1FCC7D000873B5446A12
:10323000064605212046FFF79FFA30462146032225
:10324000FFF7E6FA054600283AD102222046392146
:10325000FFF79AFA2046718DFFF7A6FA204637212C
:103260000322FFF791FAA38A2269591C1344012211
:10327000A18283F8F020A38A2269591C13440322F7
:10328000A18283F8F020A38A2269591C13441C22CE
:10329000A182204683F8F020FFF718FCA18AE0689D
:1032A000F03189B201F050FA134B00961868E168CA
:1032B00004F12402432303F0EDFE2046FFF752FB06
:1032C000A37AFF2B1CBF0133A372A37A092B9FBFE4
:1032D000C3EB431203EB82031B019BB288BF44F68E
:1032E00020634FF4FA72284603F2F31393FBF2F3D0
:1032F000E38202B070BD00BF688BFE1F10B558B1ED
:10330000446A4CB120460021FFF736FA237A1BB1FC
:10331000FFF726FC0023237210BD70B5044640B3AE
:1033200090F83330DB0724D5438D456AB3F5107F21
:103330001DD335B9402000F0A3FF0546B8B1606247
:1033400003E02B7A0BB1FFF70BFC0021402228464B
:1033500004F08EFAFFF78EFB064640B901232B726C
:103360002046FFF70FFC28B12046FFF7C7FFFF26D6
:1033700000E0F02670B270BD60B1406A50B1407A92
:103380000A2805D0043801288CBF0020012000E065
:103390000120C0B270470000F0B5446A85B006460F
:1033A000002C45D0636A0393FFF7E6FF0021054632
:1033B0002046FFF7E1F900236362A362E36223631F
:1033C000E363A363636363842384E383A3838DB391
:1033D000304621460722FFF71BFA054608BB04AF1B
:1033E000042236212046FFF7CFF957F8040D00F0EC
:1033F00027FE01462046FFF7E8F92046FFF766FB67
:10340000A18AE068F03189B201F09EF90B4B009679
:103410001868E1683A46432303F03CFE2046FFF774
:10342000A1FA074930460A460B4600F0F5FF01E0D5
:10343000F02000E0284640B205B0F0BD688BFE1FCA
:10344000D07D0008544B37B51D68002D00F0A280D8
:103450006C6A002C00F09C80637A002B00F098804E
:10346000618C61B1228C013292B28A42228406D1EF
:103470002846FFF791FF2846FFF784FB88E0E28BA0
:10348000002A6FD0511E012AE1836BD1012B04D099
:103490000A2B02D0043B012B7AD820460421FFF7E7
:1034A0006BF9284621460322FFF7B2F9002839D1EB
:1034B000022220463921FFF767F92046698DFFF780
:1034C00073F9204637210322FFF75EF9A38A2269A8
:1034D000591C13440122A18283F8F020A38A226997
:1034E000591C13440322A18283F8F020A38A226985
:1034F000591C13441C22A182204683F8F020FFF7B8
:10350000E5FAA18AE068F03189B201F01DF9234B98
:1035100000951868E168224A432303F0BBFD20466A
:10352000FFF720FAA37AFF2B1CBF0133A372A37A03
:10353000092B9FBFC3EB431203EB8203DB009BB25B
:1035400088BF42F210734FF4FA7203F2F31393FB45
:10355000F2F3228CE382638C9B1A012B18DD5B1043
:10356000E38315E0A28B9AB1511E012AA1830FD1EA
:1035700003F0FB02012A01D00A2B09D12846FFF7EC
:1035800055FE638B228C9B1A012BC4BF5B10A38357
:103590002D685AE703B030BD74FCFE1F688BFE1F18
:1035A000CC7D00081D4B10B51C68ACB3636A8BB3AF
:1035B000DA8A012A02D9013ADA822BE02AD10022E2
:1035C000DA825A7A0C2A0CD0062A0AD0012A0AD1A9
:1035D0009B7A052B204602D8FFF7B6FB1AE0FFF7CF
:1035E000DBFE204614E0082A09D19B7A012B2046F5
:1035F00002D8FFF7C2F90DE0FFF7D4F90AE0032A79
:1036000008D19B7A012B204602D8FFF727FB01E067
:10361000FFF7B8FA2468C8E710BD00BF74FCFE1FAE
:1036200070B51826074D46430446A85918B100F056
:10363000E5FF0023AB51182303FB0454002323753B
:1036400070BD00BF708BFE1F2DE9F347824689468F
:10365000904602201C2100221F460B9D00F0EEFF29
:10366000064670B34468BDF8340000F0E4FCE08026
:103670003B68A360BB88A3812B68C4F81230AB8879
:10368000E3820A9B1B68C4F80E300C9B1B68A36185
:10369000012363700823A3700623237104230025EC
:1036A000637140F606032570E570314600934A4683
:1036B00043465046FFF73AF8304600F09FFF284651
:1036C00000E0FF2040B202B0BDE8F0872DE9F74FDF
:1036D0000A230022334C019107469E461846904625
:1036E000944692461E460A2ED5B294F8009004D114
:1036F000B9F1000F04D12E4617E0B9F1000F14D034
:103700003FB139688B4654F8101C8B4501D1EEB29D
:1037100044E0B9F1010F34F8029C3AD154F8141C7A
:1037200091B3D14501D32B46CA4601320A2A04F18E
:103730001804D8D1019A910724D40A2E02D1D207B5
:1037400002D41FE0F6B20FE0BEF10A0F02D05FFA1A
:103750008EF606E00A2801D0C6B202E00A2B11D08C
:10376000DEB23046FFF75CFF0F4927B1182202FB9B
:1037700006123B685360182303FB061300225A828B
:10378000F6B20BE0FF2609E0E145CED32846CC4651
:10379000CBE7C14524BFAE46C846C6E770B203B00A
:1037A000BDE8F08F848BFE1F708BFE1F70B5084D37
:1037B000064600242B7D2BB1AB68B34202D12046D4
:1037C000FFF72EFF01340A2C05F11805F2D170BD68
:1037D000708BFE1F2DE9F047804686B00C4600290D
:1037E00071D045682B88B3F5807F69D12B79062B82
:1037F00066D16B79042B63D16B88082B60D1D5F827
:103800000E004E680490A86905901EB1059B9B1B95
:103810005E425E410498002E05F1080714BF4FF088
:1038200001094FF0020980B3214600F0E7FB824610
:1038300058BB049B03F0F003E02B26D004A84946B4
:10384000FFF744FF002820DB204918234343CA1810
:103850000220107594603868D06051F80390B888E1
:103860001082A2F812A0B9F1000F0ED041F803A007
:103870004FF4006300932046494604F12D023B4675
:10388000FEF754FF484600F0B9FEEB88B3F5807FA1
:1038900007D0B3F5007F13D1204604A9FFF77CFCC5
:1038A0000EE06EB1231D8DE8880004AB04F12D01FC
:1038B00002930223039320463A460B46FFF7C4FEC9
:1038C000404600F09BFE06B0BDE8F087708BFE1FFF
:1038D0001FB50346043300F12D020093064B0193FC
:1038E0000291012311460393044A0B46FFF7ACFEF5
:1038F00005B05DF804FB00BFC67D0008C07D000870
:1039000038B5134C0025227CDAB1E38901339BB230
:10391000B3F5967FE38103D2012A05D1042B0CD99C
:103920002846FFF77DFE0CE0032A01D1042302E0C4
:10393000042A06D10223237403E060682146FFF7BE
:10394000C7FF01350A2D04F11804DCD138BD00BFD2
:10395000748BFE1F2DE9F04315461C4C18226A4358
:103960000F46A11801F110063379022B85B080466D
:1039700000F12D091BD17388B3F58E7F03D9043173
:10398000FFF7A6FF10E0B3F5877F10D3031D009368
:103990000F4B0193043101232244029103934946C2
:1039A0000C324B46FFF750FE08B90323337118233E
:1039B00003FB05434FF400620092404639464A46F5
:1039C0000C33FEF7B3FE05B0BDE8F083708BFE1F2D
:1039D000C67D00082DE9F341074688460868394648
:1039E000144600F00BFB002839D1D8F8003003F062
:1039F000F002E02A33D093B340460121FFF766FE80
:103A0000051E2EDB2E4E182303FB0563197D61BBBB
:103A1000012119759F6038464146FFF759FF02465C
:103A2000002C49D018236B43F118097D01290ED9C8
:103A3000244A1570224A13444FF40062009238461B
:103A4000214607F12D020C33FEF770FE34E00AD157
:103A5000234673B11A7B012A1CD11B68F9E7F020B9
:103A60002AE0284628E0104626E0002CD3D0FF228A
:103A7000D8E7204600F095FEECB1182303FB05F2D1
:103A80001F46B05808B100F0B9FD07FB05F03450EF
:103A9000002011E002201989002200F0CFFD074626
:103AA00048B1214600F09CFE18B1384600F0A6FD52
:103AB00001E03C46E1E7FF2040B202B0BDE8F08102
:103AC000708BFE1F6C8BFE1FF0B5044685B00E4652
:103AD00010682146154600F091FA002853D12B6852
:103AE00003F0F002E02A14D101238DF808305E23A0
:103AF0008DF80A306B788DF8090003F07F038DF89C
:103B00000B30AB788DF80C30EB788DF80D3002ABC4
:103B10003AE06268A1685A400A4209D09BB24FF667
:103B2000A962934204D0E368002B37D004F10C055E
:103B30001C491D480A78182303FB02038E46187D92
:103B4000012803D929685B6899420CD016490023E3
:103B5000087D0128DAB20BD92F684868874207D15F
:103B6000D2B28EF8002020463146FFF7F3FE16E071
:103B700001330A2B01F11801EAD1204629463246C9
:103B8000FFF728FF0BE0094B4FF40062009220463C
:103B9000314604F12D02FEF7C9FD00E0FC2040B2E1
:103BA00005B0F0BD6C8BFE1F708BFE1FC07D000842
:103BB0002DE9F0433F4BD3F8089099F8005005F0F9
:103BC0000F05AD00132D85B0044688461F466AD9FF
:103BD0004289032A67D942681278082A63D1586952
:103BE00000F0F002E02A5ED0196800F007FA002821
:103BF00059D12389072B56D9204600F050FA0646A2
:103C00002046002E50D105F1100100F0E9FC30B340
:103C1000218929443246022089B200F00FFD064670
:103C2000002840D0428905F108039A420ED3494644
:103C300040682A46FEF70EFD3046694200F0D0FC8F
:103C400020B93046214600F0CBFD18B1304600F0D7
:103C5000D5FC28E0204600F0D1FC344607E0C5F54D
:103C60007F41F031204609B200F0BAFCD8B92046B5
:103C70002946666800F0B4FC0246A0B961687B6919
:103C8000CB603B690B61FF233070B070F0708872BD
:103C9000C8720B72012100900191CDF80880204676
:103CA000054900F099F9204605B0BDE8F04300F061
:103CB000A5BC00BF588EFE1F6C8EFE1FF0B5002203
:103CC00087B006460F460120242100F0B7FC0546C8
:103CD00058B34468716867700323237000234268F7
:103CE00023716371A371E3717368083203F11C00DF
:103CF00053F8046B42F8046B8342F9D106AECB68EB
:103D000046F8043D304600F013F858B10021012375
:103D1000A170E17032460193029000912846FF2382
:103D200000F05AF9284600F069FC07B0F0BD000029
:103D300030B5134B1B689BB193F8334004F0050278
:103D4000052AF7D15A68002AF4D001689D684A40D4
:103D50002A4213D0A207EDD4DA689142EAD10DE0ED
:103D6000084A106858B190F8332002F00502052A7D
:103D700004D14368002B08BF002030BD184630BD79
:103D800074FCFE1F78FCFE1F2DE9F047D0F804807C
:103D900098F800904FEA1913042B06460F4603D0FB
:103DA000304600F02BFCC3E0B8F8020000F043F905
:103DB000338909F00F0983424FEA8909044603D980
:103DC0003046214600F0C0FC73894B45E8D3338967
:103DD000A342E5D3B9F1130FE2D9D8F81030564D0C
:103DE0006B6103F0F003D8F80C202A61E02B07D1B7
:103DF00097F83330DA0728D57B6833B33C4687E041
:103E00003C464FF0010A94F83330DB0703D4BAF193
:103E1000000F0CD111E06368002BF8D0686998425C
:103E200076D0214600F0EAF80028F0D070E02B7D33
:103E30007F2B0AD0414B1C6800E02468BC4208BFBD
:103E400024684FF0000A002CDDD198F80930112BBE
:103E50005DD108EB09035B88B3F5884F57D13C4629
:103E6000002C9DD0B8F8063023F0C003002B97D16A
:103E7000B9F1140F94D185E8900198F80030DFF87B
:103E8000B8A003F00F039B0030463946AB8100F029
:103E900029FDA0BB30466FF0130100F0A1FB98F89C
:103EA0000930062B0DD0112B06D0012B0ED1304638
:103EB0003946FFF77DFE22E03046394602F0BAFF70
:103EC0001DE03046394601F0B5FE18E0DAF814007E
:103ED000214600F093F878B9DAF8143003F0F003D3
:103EE000E02B09D04946304600F081FBC6F804803B
:103EF00030460221FFF7E2FE304600F07FFB002350
:103F00002B606B60AB60AB812B616B6110E00024B8
:103F100028690028A4D0394600F070F800287FF402
:103F20003FAF054B1B6903F0F003E02B98D137E757
:103F30000020BDE8F08700BF588EFE1F74FCFE1FF6
:103F40002DE9F347DDF83080064689469A46154646
:103F50006AB3142100F044FB0746002833D174688B
:103F60009DF82C3084F808A063722B6823614523E8
:103F700023709DF828306370308900F05CF8A771D9
:103F8000E771134F6080388800F055F83B88A080B7
:103F900001333B80B9F1000F02D10E4B1B6801E0E9
:103FA000D9F80030E3600023A372E37204E04368B1
:103FB00002AD1B6945F8043DD8F81430404631463F
:103FC0002A46984700E0FE2040B202B0BDE8F087E4
:103FD000608CFE1FD07D0008F0B5079C9DF8146032
:103FE0009DF818501AB109B10F6807B9211D05963F
:103FF00006950794BDE8F040FFF7A2BF431E0333C8
:10400000024614D891F8333003F0020303F0FF00A6
:1040100083B1486882420CD08B685040184208D166
:10402000DB4302EA0300C31A58425841704701209B
:10403000704700207047030A43EA002080B27047AF
:1040400000BA704713B5002310F00104ADF8063034
:1040500007D09942C1BF03788DF8073001F1FF31D5
:1040600001300022012904DD30F8023B02391A44F4
:10407000F8E704BF03788DF80630BDF80630D01895
:1040800083B203EB104083B203EB104024B1030270
:104090009BB2C0F30720184380B202B010BD70B5C8
:1040A000002506462C46AEB170687189FFF7CAFF3D
:1040B00073893668204484B2DB0704EB104441BFA7
:1040C0002302C5F101059BB2C4F3072444BFEDB23E
:1040D0001C43E8E725B123029BB2C4F307241C4329
:1040E000E04380B270BD08B500F00CF800F038F97C
:1040F00000F06BF902F09CFE00F054FCBDE80840B3
:1041000002F036BE0B4B0C4A23F003030021136070
:1041100059804FF4C862197108491A809818A3F899
:104120004026A3F84226064A0860012183F8441677
:1041300013607047738EFE1F6C8CFE1F688CFE1F11
:10414000648CFE1FF0B500283AD01E4B1B689842C5
:1041500036D31D4A1668B04232D2002100F8041C42
:104160001A4930F8085C0C68A0F10802A24203EB7F
:10417000050438BF0A60A2420FD027796FB9B44254
:104180000BD00E68A64204BF104C22605C5B20F886
:10419000084C5C5B1C44D51A658030F8064C1D1930
:1041A00095420DD02E795EB90968914204BF074A45
:1041B000156030F8082C1A5330F8082C13445C8032
:1041C000F0BD00BF6C8CFE1F688CFE1F648CFE1F50
:1041D00003314FF6FC720A400B2AF0B503D9B2F551
:1041E000C86F01D943E00C22224B1B6898423FD391
:1041F0002149096888423BD2A0F1080430F8085CE4
:10420000E41AA4B2A5F10801091B89B28A422ED88A
:104210002ED05E1937797FB95F5B184D04F1080124
:104220000A44296892B2B14203EB020108BF296037
:1042300000250D719F5210E002F114068E4217D82E
:104240000E4E04F108010A44376892B29918B94237
:1042500038BF316000260E719D524C8020F8082C2A
:10426000995AB1F5C86F03D00B445A80F0BD0020B5
:10427000F0BD00BF6C8CFE1F688CFE1F648CFE1F9F
:104280002DE9F04100284ED003304FF6FC73034077
:104290000B2B03D9B3F5C86F01D943E00C23234C92
:1042A000234D276829687A1A92B2C3F5C860824202
:1042B00038D2881831F802E090F804C0BCF1000F41
:1042C0002ED1AEF10806B61A9E4229D303F1140886
:1042D000464512D3083313449BB2CE1886F804C067
:1042E00021F803E07280012203800271CA5AB2F5FC
:1042F000C86F04D011444B8001E001230371B84220
:104300000BD10C4B29681A6803461D7925B19342DD
:1043100002D01B880B44F8E723600830BDE8F08129
:104320007246C2E70020BDE8F08100BF648CFE1F2A
:104330006C8CFE1F688CFE1F8368002230B51A60EB
:1043400043684488033323F00303A24207DA8168F9
:104350000D681D600B60018801320B44F5E730BD2C
:1043600010B50024044B53F824000134FFF7E4FF98
:10437000082CF7D110BD00BF347E0008072808D8EC
:10438000054B53F820309B68186818B102681A6012
:1043900070470020704700BF347E0008072807D808
:1043A00031B1044B53F820309B681A680A601960D9
:1043B000704700BF347E000890F833301B07014679
:1043C00002D50431FFF784BA7047704773B50646CB
:1043D0000C4609B10B6801E00E4B1B680193019A72
:1043E00073689A4213D0351D284601A900F088FF52
:1043F000284601A902F0D4FE284601A900F0BCFA23
:1044000004B12468746014B13046FFF7D5FF02B0E0
:1044100070BD00BFD07D000870B5064615461C462D
:1044200009B10B684BB93046FFF7D0FF05B12D68D5
:10443000B56004B12468F46070BD02B11568B56060
:1044400004B12468F4603046BDE87040FFF7BEBF99
:104450002DE9F041002504468846174645608560F1
:10446000C56080F833502946042224301E4603F0EC
:10447000FFF91149E5610A7884F83620032384F8AE
:104480002830069B2362531C0B70089B2361204637
:10449000334641463A46FFF7BFFF2046079B984701
:1044A00030B9064B1A68226020461C60BDE8F081D6
:1044B0002846BDE8F08100BF908CFE1F74FCFE1FF3
:1044C000014B1860704700BF78FCFE1F90F8332046
:1044D000D10709D442F00101520780F8331003D507
:1044E00043680BB1FFF768BF704790F83330D907C6
:1044F00007D523F001011B0780F8331001D5FFF722
:1045000055B9704710B590F833305A07044614D4A3
:1045100043F0040380F83330FEF728FE94F833307C
:10452000DB0704D5636813B12046FFF745FFE36955
:104530001BB12046BDE81040184710BD90F833303D
:10454000590706D523F0040380F83330C36903B15B
:104550001847704700B1C1617047002930B505DACE
:104560004C424389A4B2A34201D221E08CB2057B24
:1045700043680DB1032D05D15B1A00F1100293427F
:104580000CD215E0013D012D12D8002903DA428931
:10459000A2420DD301E00BD052B15B1A43604389B4
:1045A00089B20B444381038919440181002030BD45
:1045B000012030BD084B002210B51A70074B1C6853
:1045C00044B1206F20B100F070FA0023236710BDC2
:1045D000E468F5E710BD00BF7CFCFE1F84FCFE1FF5
:1045E00019B110B10022FFF7B8BF0020704719B110
:1045F00010B10122FFF7B1BF0020704738B5014666
:10460000D8B10024E0B2B9B1CB89013B9BB2CB81D8
:104610009BB90B7B0D68032B01D1072003E0013B05
:10462000012B03D80620FFF7B9FE02E00846FFF78A
:1046300089FD01342946E5E738BD38BDF8B50E4699
:10464000174604287CD8DFE800F0090305070700B7
:10465000242504E0102502E0002500E03825032F82
:104660006ED8DFE807F0445C5C020720FFF786FEA7
:10467000044618B9334B01221A705FE00323037319
:104680000023036043191333C5F5C06523F003030A
:10469000B54228BF35464360012345810681C38169
:1046A000751B0746002D45DD0720FFF767FE064610
:1046B00038B9244B012220461A70FFF79FFF30467D
:1046C000F8BD03230373002343730360ABB200F10F
:1046D0001002B3F5C06F38600381426028BF4FF409
:1046E000C06301224381C281ED1A0746DAE7F31C59
:1046F00023F0030305F11000184480B298421FD341
:10470000FFF7BEFD0446D8B105441335002325F05C
:104710000305456006814681036003730AE00620B5
:10472000FFF72CFE044658B1002343600681468102
:10473000036007730123E381002363732046F8BD00
:104740000020F8BD7CFCFE1F38B5038999420D4658
:104750001ED2CA1A43899D4206D9ED1A0389134411
:104760000381ADB20068F5E7027B044642B99D4281
:1047700006D04168091A294489B2FFF729FD044689
:1047800020686581258108B1FFF738FF0023236089
:1047900038BD0346002290B201320BB11B68FAE724
:1047A000704710B1C3890133C381704730B568B118
:1047B00001B930BD05680C8925B10289A3180381B0
:1047C0002846F7E7038901602344038130BD10B513
:1047D0000C46FFF7EBFF2046BDE81040FFF7E1BFB6
:1047E0002DE9F0410C46064608B9F02442E00029C4
:1047F000FBD002890B899A42F7D34FF00008474655
:104800006589738961687068C8EB0505DB1BAB427D
:10481000B4BF9DB2ADB2384441442A46FDF71AFFF9
:104820002F44638945441FFA85F84345738998BF2F
:104830002468BFB298BF4FF00008BB4203D136686E
:104840001EB9BCB1D1E714B907E08CB10027628969
:1048500023899A4201D1236843B9728933899A42E4
:1048600001D1336813B9002CCAD103E0FA2401E066
:104870002746F2E760B2BDE8F0812DE9F8438846AB
:104880009146064628B331B300242746B9F1000FFC
:1048900024D01EB32BB171898B4202D35B1A9BB219
:1048A00015E072897168D21A95B24D4528BF4D4600
:1048B00008EB070019442A462C442F44C5EB090590
:1048C000FDF7C8FEA4B2BFB21FFA85F9002336680F
:1048D000DCE7BDE8F8830846BDE8F8832046BDE87C
:1048E000F88300002DE9F84F204E214F31688046B3
:1048F0007069FFF783FBD8F804303C6893F809B07F
:1049000082464FF00009DCB1237C5B450BD1236864
:10491000BAF1000F01D033B903E013B172699342C9
:1049200001D165690DB9002005E0A069114B214650
:104930004246A84750B9E368A14620B91C46E2E7C1
:104940002046BDE8F88F0120BDE8F88FB9F1000FCF
:1049500009D0E368C9F80C303B68E3603C60012093
:104960004FF00008E7E70120C846E4E7588EFE1F35
:10497000948CFE1F688EFE1F10B578B103686BB172
:1049800061B10B6853B1064B1B683BB11C680268F0
:10499000944204BF0A681A60DB68F6E710BD00BFE6
:1049A000948CFE1F7047438B9B0508D5836F33B1F2
:1049B0005A7F013A5A77438B23F40073438370473D
:1049C000037D042B10B504460AD0072B0DD0032B12
:1049D0001BD101F062FE88B92046FFF7E4FF02E038
:1049E00001F05BFE50B9052303E001F056FE28B943
:1049F00009232375204601F0A7FE06E043B20133E8
:104A000004D1638B43F008036383002040B210BDE0
:104A100070B5C16A068D458E446A731AB5F5866F06
:104A2000024603EB040094BF431BA0F58663002BF2
:104A300001DB568570BD631A002B4FF00000D6BF16
:104A4000091B5085518570BD038D194489B2B1F59C
:104A5000066F10B50446018503D94FF4066323851C
:104A600005E021B9037D072BF7D0092BF5D02046AF
:104A7000FFF7CEFFB0F5067F08DB638B43F0020340
:104A800063832046BDE8104001F05EBE10BD10B546
:104A9000044648B1406808B1FFF7B0FD2146042044
:104AA000BDE81040FFF77ABC10BD10B520B1046816
:104AB000FFF7EDFF2046F9E710BD38B504460420A6
:104AC000FFF75CFC054660B120462B4604F110025E
:104AD00050F8041B43F8041B9042F9D16868FFF7B3
:104AE00060FE284638BD38B5037D012B04461BD92E
:104AF0000A2B19D0FFF757FF606F18B1FFF77EFD43
:104B000000236367206FFFF7D0FF00254FF6FF7388
:104B10002386A06E2567FFF7C8FFE06EFFF7C5FF8D
:104B2000A566E566A4F8645038BD00002DE9F74F8E
:104B3000A44F3B6801333B60A34B1A7801321A70D3
:104B40009846A24B1C684FF0000A9946002C00F0D2
:104B5000198198F80030A27F9A4201D1E668EEE010
:104B6000217DA377022994F8422001D1052A59D842
:104B70000B2A57D894F89530EBB1954A134413F8A3
:104B8000012C94F8943093423CBF013384F8943064
:104B900094F89430934243D3204602F012F8002850
:104BA0003ED194F8953084F89400062B38D8013320
:104BB00084F8953034E0238E18045CBF01332386DB
:104BC000E36E6BB3B4F93000B4F94030984227DBA0
:104BD00002290DD0B4F93C10B4F93E300C2A03EB95
:104BE000E10328BF0C227B498A5C9340A4F8403043
:104BF0000023B4F848202386B4F85C30618EA4F812
:104C00004810934228BF13464A005B0892B2934271
:104C1000A4F84A30204638BFA4F84A2001F03EFFED
:104C2000002500E00125227D062A09D1638BDB06E1
:104C300006D53B68216A5B1A282B84BF0135EDB28B
:104C4000237A03F0080303F0FF064BB3042A01D0D4
:104C5000072A24D1236A3968C91AD4F8903003F599
:104C6000242202F6B8424FF4FA70B2FBF0F29142FD
:104C700003D90135EDB2012612E094F89620564E84
:104C800006FB0233B3FBF0F3994208D9204601F04A
:104C90006FFF20B994F89630013384F896300026DF
:104CA000206F68B13B68226A9A1AB4F9403003EB6E
:104CB0004303B2EB430F03D3FFF7F7FE0023236751
:104CC000237D032B07D13B68226A9B1A282B09D925
:104CD0000135EDB206E0092B04D13B68226A9B1A2C
:104CE000F02B00D86DB32046D4F88C50FFF7FBFEB4
:104CF000E368BAF1000F02D0CAF80C3001E0C9F83D
:104D000000304EB1E38A0093238B0193E06C616A1B
:104D10002246231D01F07AFED4F810B0E668214641
:104D200002202E4CFFF73AFB002323701DB158469A
:104D30006FF00C01A8472378002B7FF402AF544694
:104D40001DE0237F627FE6680133DBB29A4223775E
:104D500015D8DFF888A0D4F8883025778AF8005075
:104D60001BB120692146984700E028469AF8003098
:104D7000002B7FF4E6AE10B9204601F0E5FCA24618
:104D80003446E3E6164B1D689846C5B13B682A6A6F
:104D90009B1AF02B03D8EE682C463546F5E72846DB
:104DA000FFF7A1FEEB680CB1E36001E0C8F800304A
:104DB00029460220EE68FFF7F1FA2546ECE703B03A
:104DC000BDE8F08F88FCFE1F998CFE1F84FCFE1F3F
:104DD000717E0008647E0008F824010080FCFE1F3C
:104DE00094FCFE1F03688B4210B50C4603D1CB68C0
:104DF000036006E0134623B1DA68A242FAD1E26802
:104E0000DA600023E3602046FFF76DFE237D0A2B66
:104E10000AD0012B08D0638BDA0705D543F00203D3
:104E20006383204601F090FC00232375E38210BDCC
:104E300037B50446057D00293CD0042D01D0072D4F
:104E400038D1636F1BB9238DB3F5066F32D0E38A77
:104E50000093238B01932246231DE06C616A01F0CD
:104E6000D5FD2046FFF73FFE344A1368A34203D125
:104E7000E368136006E0134623B1DA68A242FAD170
:104E8000E268DA600023E3602D4B01221A70237D73
:104E9000042B08D10A2323752A4B1A68E2601C6090
:104EA00001F030FF47E0284B1B68A34207D101F017
:104EB00027FB40E0012D20D003D2E38A63B9022012
:104EC0002FE0022D31D11D482146FFF78BFF1C4BEF
:104ED00001221A70284624E01C4A1368A34203D119
:104EE000E368136006E0134623B1DA68A242FAD100
:104EF000E268DA600023E360E1E7154B53F8253000
:104F00001B6833B19A6FA24204BF00229A67DB6824
:104F1000F7E70135042DF0D10E482146FFF762FF77
:104F200003202146FFF73AFA05E0204603B0BDE82A
:104F30003040FFF745BD002003B030BD84FCFE1FAC
:104F400080FCFE1F94FCFE1F98FCFE1F90FCFE1FC1
:104F5000547E00088CFCFE1F037D012B1EBF438B7B
:104F600043F0100343830121FFF762BF10B50846E9
:104F7000144632B11189FFF767FD2046FFF73EFB6B
:104F800004E01BB9BDE81040FFF7E6BF002010BDEC
:104F9000F8B5456FD0F880606F7B00230446436707
:104FA00026B121462A460069B04705E03046214631
:104FB0002A463346FFF7DAFF98B9BB0617D5238D8B
:104FC000D4F88050B3F5066F1CBF0133238575B14B
:104FD0000022206921461346A8470D3007D1F3204F
:104FE00006E040B20D30FAD06567FB2000E00020FB
:104FF00040B2F8BDF8B5194B1A7801321A701D4647
:10500000174B1C684CB32B78A27F9A4222D0A3770F
:10501000638BD90709D543F002036383204601F06F
:1050200093FB638B23F003036383638B1A0705D51C
:1050300023F0080363832046FFF7C2FC636FE66832
:105040004BB1084F002320463B70FFF7A1FF3B7890
:105050000BB1D5E7E6683446D4E7F8BD998CFE1F5E
:1050600084FCFE1F80FCFE1F08B5FFF7C3FF064A45
:1050700013780133DBB21370DB0703D5BDE80840BA
:10508000FFF754BD08BD00BF988CFE1F037D0A2B9F
:105090002DE9F34704468A460AD121462C48FFF7FA
:1050A000A1FE0220214602B0BDE8F047FFF776B925
:1050B000D0F84C90D0F82480D0F88C600769C58A6D
:1050C0008BB9C5B1234A1368834203D1C368136007
:1050D00006E0134623B1DA68A242FAD1E268DA6048
:1050E0000025E56007E01C482146FFF77BFE1B4BCF
:1050F00001221A7000E0AA46E06E08B1FFF7D5FC65
:10510000A06E08B1FFF7D1FC206F08B1FFF7CDFC0E
:105110002046FFF748FCBAF1000F08D0238B01931B
:105120000095484641462246231D01F06FFC0220AF
:105130002146FFF733F93EB138466FF00C01334694
:1051400002B0BDE8F047184702B0BDE8F08700BFE5
:1051500094FCFE1F90FCFE1F84FCFE1F80FCFE1FC3
:105160000121FFF793BF38B5054649B10A682B689E
:10517000CC689A4202D10846FFF7F2FF2146F4E7D5
:1051800038BD00000C4B19680C4B30B500241D686D
:10519000224651B10B7D834205D10B6AEB1AA34223
:1051A00024BF1C460A46C968F3E722B11046BDE891
:1051B0003040FFF76BBF30BD84FCFE1F88FCFE1F34
:1051C000F8B506460220FFF7D9F8394D0446002805
:1051D00042D1384B29681B683BB11A6A8A1AA2422D
:1051E00024BF18461446DB68F6E708B1FFF7B8FF9E
:1051F0000220FFF7C3F8044670BB0920FFF7C2FF87
:105200000220FFF7BBF8044630BB0820FFF7BAFFC7
:105210000220FFF7B3F80446F0B9274BD5F800E0B9
:105220001B6816F0800F0CBF31467F2163B15F7D94
:105230008F4207D81A6AC2EB0E02A24222BF394639
:1052400014461846DB68F1E708B1FFF789FF022032
:10525000FFF794F8044648B398222046002102F054
:1052600007FB4FF4066262852285FF22A2724FF48B
:10527000067262860622A4F84020E2874FF6FF728B
:1052800022860122A4F848202A6822624FF486630D
:105290000A4AA4F86030A4F84A30094B1278C4F8DE
:1052A0008030084B6675A277C4F890302046F8BD70
:1052B00088FCFE1F94FCFE1F84FCFE1F998CFE1FC1
:1052C0006D4F000800DD6D00034A044B1868136839
:1052D00018441060704700BFA889FE1F88FCFE1F9D
:1052E00010B504460846FEF723FD30B1438D23B1C7
:1052F000283B9BB29C4228BF1C46204610BD0000A4
:1053000038B50D460446C8B10368BBB10C4B1968EB
:10531000FFF729FF0B4B20461968FFF724FF6DB1FB
:105320002B685BB1084B1B6843B118682168DA68C9
:10533000884204BF296819601346F5E738BD00BFED
:1053400084FCFE1F90FCFE1F8CFCFE1FF8B5C3689A
:10535000054698890C46FEF76EFEC20720D520460A
:10536000FFF7A3FB002428E0154BE66819682A899B
:1053700073682789D01A0844C01B002813DBB08942
:10538000FEF759FEC30706D5EF680120BE89FEF778
:1053900052FE3043B88120462668FFF778FB34463A
:1053A000002CE1D109E00A44D21A002A05DD591A7D
:1053B00089B229816868FFF7C7F92C60F8BD00BF82
:1053C000A08CFE1F2DE9F84FB54BB64E1B7813F09D
:1053D000100F044600F03E81026D3168B0F85CE0C9
:1053E000436DB14F501A00280DDB8A4203D13A6851
:1053F0009A1A002A07DB3A6893421ED1AB4A126818
:10540000D289724519D9A94AB4F85E501268D08978
:105410002165854239686165A4F85C0038BFA4F84D
:105420005E0094F8951020B939B984F894000122EF
:1054300001E011B1002284F895203A68606C9C4D1F
:10544000111A002931DC9B490988002940F06F833B
:10545000B4F85CC0616D73446144994240F0678365
:10546000B4F93030002BC0F26283904240F05F8389
:1054700094F84320531CDBB2934288BF84F8433036
:1054800094F84330032B0AD9B4F84820638E1344B0
:105490009BB2934240F2B080A4F84830ACE040F0B8
:1054A000AB80204601F03EFBA6E0E36CD31A002B54
:1054B00064DC638BB4F93C006264590741BF23F09C
:1054C00004036383B4F84A30A4F84830E38F03EB55
:1054D000E003A4F84030237D0021032B84F8421020
:1054E00084F843103DD9B4F84820B4F84A309342C8
:1054F000638E9CBF5B4393FBF2F313449BB29342D6
:105500002FD9A4F848302CE0DB685868FEF798FDE6
:10551000E36EB3F80890DB6880469889FEF78BFD50
:105520003B6810F00300C3EB090918BF0120C84411
:105530004044002818DCD4F86C80D8F80030E366CA
:10554000D8F80400FFF725F9B4F86230B8F808205D
:10555000181A2B88A4F86200134440462B80FFF7EA
:1055600096FAE36E002BCFD1E26E00231AB94FF604
:10557000FF72228600E0238623773DE0204601F07B
:10558000AEF839E0DB68D7F800805868FEF758FDC0
:10559000A36EB3F808A0DB6881469889FEF74BFD3F
:1055A000CAEB080810F0030018BF0120C9EB080877
:1055B000C0EB0808B8F1000F21DB3B4BE26C1B6825
:1055C0009B1A002B1BDCD4F86880D8F80030A36647
:1055D0000BB9A4F86430D8F80400FFF7DAF8B4F88F
:1055E0006230B8F80820181A2B88A4F86200134417
:1055F00040462B80FFF74BFAA36E002BC2D1B4F8C4
:1056000060302A88616B1344A4F8603011B3A36B37
:105610003A689B1A002B1DDA274AA38F1268521A88
:1056200043F3CC01521A92B291B20804134444BF1E
:10563000524291B2E28F42F38D00121A9BB20A4499
:1056400092B2A38743F3CC031344A4F84030002361
:10565000E2876363174F626A3D88002D00F057822E
:10566000237D062B00F253823368D11A012937D4E7
:10567000501CC01A401B002832DC104D686842895B
:105680008A420B461EDA0289521A92B24189994225
:1056900016DA5B1A0021028141810068F6E700BF3B
:1056A000B08CFE1FA08CFE1FAC8CFE1FB88CFE1FA2
:1056B000B28CFE1FA88CFE1F88FCFE1FC48CFE1F30
:1056C000594200E0494209B2FEF78AFF2B8931684E
:1056D000626A32600B449B1A2B81EB685A6006E0C9
:1056E0009B1A002BBEBF638B43F0020363833268B7
:1056F000616A531A002BC0F20582531C208D5B1A7D
:105700001B1A002B00F3FE81914240F03181AD4D18
:10571000EB68B5F808809889FEF78DFC10F003005F
:1057200018BF01204044238D80B28342388037D295
:10573000EB689889FEF77FFCC20710D5D5F80C906E
:10574000B9F80C804046FEF776FC00F03E00FEF70C
:1057500072FC28F47C5840EA0800A9F80C00238D5C
:105760002B81EB68DFF85C829889FEF764FC830785
:1057700048BFB8F80830686844BF03F1FF33A8F8A1
:1057800008302989FEF7E0FFEB68B5F808809889B2
:10579000FEF751FC10F0030018BF01204044388090
:1057A000236F002B75D0EB689889FEF744FCC00787
:1057B00007D5206F00286CD003682367FFF767F9CF
:1057C000F7E7D4F87080B8F1000F60D0D8F80CE09B
:1057D0003B88DEF804203068B8F808C0991A014404
:1057E000CCEB010100292DDBBEF80C00FEF723FCF9
:1057F000C10720D5EB68DFF8CC919889FEF71BFC38
:10580000820718D4D9F80CB00120BBF80CA0FEF721
:1058100012FCD9F80C3040EA0A00ABF80C00988969
:10582000B9F808A0FEF707FC10F0030018BF01202C
:10583000654B50441880D8F800904046FFF727F990
:10584000C846C0E703449B1A002B20DDEB68DFF855
:105850007491121A2A819889FEF7EDFB830748BFDD
:10586000B9F80830686844BF03F1FF33A9F808307D
:105870002989FEF769FFEB68B5F808909889FEF76B
:10588000DAFB10F0030018BF012048443880C4F848
:1058900070803988238D32685B1A0A4462622385DE
:1058A0002046FFF7B5F86B681A8922B1474A1360A2
:1058B000444B00225A60EB689889FEF7BCFBC50791
:1058C0003FD5434A137843F02003137039E0EA6868
:1058D000616A53688B4242D1336090892F89FEF709
:1058E000AAFB636A10F003003B4418BF0120184470
:1058F000EB68606298892F89FEF79DFB10F003002A
:10590000238D18BF01203844181A20852046FFF740
:105910007FF869680B89C3B9EB689889FEF78BFB40
:10592000C00709D52A4A137843F020031370237D5A
:10593000042B04BF072323752B6823672846FFF732
:10594000A6F8256F002DC2D109E0204B186810B1D0
:10595000FEF72CFF00E0196000236B60DCE7638B2F
:10596000D90702D523F00103DCE043F00103DBE0BB
:10597000204600F0B4FE256F2DB91248FFF79DF8C0
:105980002067BDE8F88F134B1B684FF0000803F148
:10599000FF3E03F1010CE868426893421CD10948BC
:1059A0002B8902899A4240F2C680FFF786F80028C8
:1059B00000F0C180B8F1000F02D0C8F8000018E074
:1059C000206716E0C48CFE1FA88CFE1FBC8CFE1F37
:1059D000B48CFE1FA08CFE1FB8F1000F0ED1991AD7
:1059E000002933DA5548FFF768F8002800F0A38053
:1059F00020672946BDE8F84FFFF7A8BCD8F80C107F
:105A00004968C1EB0E01002920DBC2EB0C01002923
:105A10001CDC4A48FFF751F80446002800F08B8050
:105A2000D8F80C30B8F8082059683368D21A0A44FC
:105A3000002A07DD591A89B2A8F80810D8F804001E
:105A4000FEF782FEC8F800402046D2E72968A84643
:105A500009B10D469FE79B1A002B6CDD8089FEF78C
:105A6000EAFAC20767D43548FFF727F8286000280C
:105A700061D0EB682A8959683368D21A0A44002A2F
:105A800005DD591A89B229816868FEF75DFE3B88F9
:105A9000626A9A1A33681344228D9B1A002B4ADDDE
:105AA0002B68DB689889FEF7C6FAC30711D52B6807
:105AB000D3F80C90B9F80C804046FEF7BCFA00F021
:105AC0003E00FEF7B8FA28F47C5840EA0800A9F82E
:105AD0000C00238D616A2A68194433685068C91A1A
